S01700004763634170706C69636174696F6E342E7372656358
S11300000C942A000C942A010C9447000C94470089
S11300100C9447000C9447000C9447000C94470040
S11300200C9447000C9469010C9447000C9447000D
S11300300C9447000C9447000C9447000C94470020
S11300400C9447000C9447000C9447000C94470010
S11300500C94470011241FBECFE5D4E0DEBFCDBF12
S113006010E0A0E6B0E0EEEEF3E002C005900D92E1
S1130070A437B107D9F720E0A4E7B0E001C01D928E
S1130080AB37B207E1F70E94B6010C94F5010C946A
S113009000008F929F92AF92BF92CF92DF92EF9225
S11300A0FF921F93CF93DF936B017C01683E23E0A3
S11300B072078105910578F5C6E7D0E01B8224E636
S11300C030E040E050E00E94D3012A8334E6239FCD
S11300D0C0011124092E000CAA0BBB0BA701960129
S11300E0281B390B4A0B5B0BCA01B9010F2EFAE02E
S11300F08F2E912CA12CB12CF02DA50194010E94DE
S1130100D3012983C701B601A50194010E94D3013B
S1130110688383E088C0603137E273078105910505
S1130120B0F1603A46E8740741E08407910550F461
S11301302AE030E040E050E00E94D30169017A01F6
S113014012E028C0603452E475075FE0850791052A
S113015050F424E630E040E050E00E94D30169010D
S11301607A0111E017C080E8C81686E9D80688E944
S1130170E806F10470F4C701B60128EE33E040E06C
S113018050E00E94D30169017A0110E003C013E03A
S113019001C010E0C701B60128EE33E040E050E0B2
S11301A00E94D301C6E7D0E02B8348EE53E0249F9E
S11301B0C001259F900D1124092E000CAA0BBB0B26
S11301C046015701881A990AAA0ABB0AC501B40153
S11301D024E630E040E050E00E94D3012A8334E674
S11301E0239FC0011124092E000CAA0BBB0BA501EF
S11301F09401281B390B4A0B5B0BCA01B9010F2E62
S1130200FAE08F2E912CA12CB12CF02DA501940194
S11302100E94D3012983C701B601A50194010E945C
S1130220D3016883812FDF91CF911F91FF90EF90CD
S1130230DF90CF90BF90AF909F908F9008959FEFE5
S11302409BBBE82FF0E0EE0FFF1FE05AFF4F8081C9
S11302508BBB08951F920F920FB60F9211242F9308
S11302603F934F935F936F937F938F939F93AF933A
S1130270BF93EF93FF936091740070917500072E04
S1130280000C880B990B0E94490080937A0093B765
S113029082E0892783BF93B781E0892783BF82B334
S11302A0805882BB86E082BF109275001092740061
S11302B0FF91EF91BF91AF919F918F917F916F913A
S11302C05F914F913F912F910F900FBE0F901F9010
S11302D018951F920F920FB60F9211248F939F932C
S11302E080917400909175000196909375008093AD
S11302F0740086E082BF9F918F910F900FBE0F9084
S11303001F901895CC24C394D12C0F2EF6E7EF2E12
S1130310F0E0FF2EF02D0F2EF3E0AF2EB12CF02DD8
S113032010E082B3E6010A2C02C0CC0FDD1F0A9450
S1130330E2F78C2B82BBF70181917F010E941F01A0
S113034080917A00811301C0DF988FE19EE40197C8
S1130350F1F700C0000082B3C095C823C2BB1F5F81
S11303609FEFA91AB90A1430E1F6CFCF89B781609B
S113037089BF8F9A8FEF8ABB1BBA81B3886781BB11
S113038093989498959896988A98929A85B782604B
S113039085BF8BB780648BBF109275001092740078
S11303A078940E948201A1E21A2EAA1BBB1BFD01B4
S11303B00DC0AA1FBB1FEE1FFF1FA217B307E40740
S11303C0F50720F0A21BB30BE40BF50B661F771F98
S11303D0881F991F1A9469F7609570958095909578
S11103E09B01AC01BD01CF010895F894FFCF3D
S11303EEC000F900A400B000990092008300F80048
S10703FE80009800DF
S9030000FC
